:100000003FC084C158C057C056C055C054C053C02B
:1000100063C451C050C04FC04EC04DC04CC04BC057
:100020004AC049C048C0FEC308C4FEC308C40CC4CB
:1000300013C414C415C418C40902120001010080BD
:100040003209040000000000000012011001FF004E
:100050000008C016DC050001010203010C033C008E
:100060003A00330029007E000803450053004C008D
:100070000C037000690074006F006E000403090433
:1000800011241FBECFE5D4E0DEBFCDBF10E0A0E657
:10009000B0E0E6E2FBE002C005900D92A037B107A8
:1000A000D9F720E0A0E7B0E001C01D92AC3AB2075A
:1000B000E1F7DBD436C5A4CFCF93DF936091810005
:1000C000635067FDAAC080917E00CCE0D0E0C81BE1
:1000D000D109CB57DF4F80917D008D3209F08CC064
:1000E000683009F098C083EC809371008AE58093B2
:1000F0006100109270008881807639F0CE0183D340
:10010000982F8F3F09F467C06DC09A8110927A00D2
:100110008981811106C010927B002AE730E092E0CD
:1001200055C0853019F49093820042C08630D1F5D5
:100130008B81813019F48AE490E004C0823041F46C
:1001400088E390E09093800080937F0092E126C046
:10015000833019F5911108C08CE790E090938000EE
:1001600080937F0094E01AC0913019F480E790E00A
:100170000EC0923041F488E690E090938000809326
:100180007F0098E00BC0933041F48CE590E09093B1
:10019000800080937F009CE001C090E080E4809329
:1001A000700020C0883079F0893031F49093840059
:1001B0002AE730E090E00AC091E08A3009F090E050
:1001C0002AE730E003C024E830E091E0309380007B
:1001D00020937F0007C0888187FD9E8180E88093FF
:1001E000700007C08F81811104C08E81891708F4C7
:1001F000982F909360000FC08091700087FF0BC014
:10020000CE0138D38F3F21F48EE18093610003C08B
:10021000811110926000109281008091610084FF32
:1002200048C0809160008F3F09F443C0C82F8930D7
:1002300008F0C8E08C1B809360009091710088E802
:10024000892780937100CC2339F180917F009091B0
:1002500080002091700026FF0BC0A2E7B0E0FC01F7
:100260002C2F280F34913D9331962E13FBCF09C0CC
:10027000DC01E2E7F0E02C2F2E0F3D9131932E139D
:10028000FCCF2FEF2C0F30E02F5F3F4F820F931FDB
:100290009093800080937F006C2F82E790E032D0B3
:1002A00064E06C0F6C3019F08FEF80936000609306
:1002B000610084E190B3947131F48150D9F71092C8
:1002C000820010927C00DF91CF91089585B7826003
:1002D00085BF8BB780648BBF0895A82FB92F80E0AE
:1002E00090E041E050EA609530E009C02D9182270E
:1002F0009795879510F084279527305EC8F36F5F38
:10030000A8F30895EADF8D939D930895CF93CFB717
:10031000CF93C395849BE9F7849B09C0849B07C056
:10032000849B05C0849B03C0849B01C0A1C0DF9354
:10033000C0917E00DD27CB57DF4F849B02C0DF9149
:10034000EBCF2F930F931F9300B32FEF04FB20F9F4
:100350004F933F9310B34FEF012704FB21F93BE08C
:1003600031C04E7F012F10B3216028C0102F4D7F68
:100370002260000000B329C04B7F2460012F0000E1
:1003800010B32BC010B3477F28602AC04F7E00B344
:1003900020612CC04F7D10B320622FC04F7B00B373
:1003A000206432C0422700B349934FEF000010276A
:1003B00014FB20F910B31471C9F1297F91F20127C0
:1003C00004FB21F900B3237F89F2315058F1102743
:1003D00014FB22F910B3277E79F2012704FB23F9DD
:1003E0002F7C81F200B3102714FB24F92F7971F2CE
:1003F00000C010B3012704FB25F92F7359F200C088
:1004000000B3102714FB26F9223040F200C010B3CD
:10041000012704FB27F9243028F64F77206810B312
:100420000000F9CF10E41ABF002717C03B503195E8
:10043000C31BD04010E41ABF0881033CE9F00B3421
:10044000D9F020917C001981110F1213EDCF0936DC
:1004500041F10D3211F0013E39F7009383003F91D5
:100460004F911F910F912F91DF91CAB7C6FD51CFC8
:10047000CF91CFBFCF91189520918300222379F39C
:1004800010918100112311F5343012F13093810065
:1004900020937D0010917E003BE0311B30937E0065
:1004A00017C00091810001308CF40AE530916100A1
:1004B00034FD10C000936100C1E7D0E00FC0279564
:1004C000A8F45150A9F4220F0000F9CF4AE503C067
:1004D00042ED01C0432FC4E1D0E032E011B314611A
:1004E000949A11BB02B320E414E15F93012756E014
:1004F00002BB279520F4515021F4220FF9CF012798
:1005000056E000003B5A02BBD0F2279528F4515028
:1005100029F4220F0000F9CF012756E0279502BBEE
:1005200020F4515021F4220FF9CF012756E02991F0
:10053000332302BB21F60B7E10918200110FC651AE
:10054000D04002BB11F010937C0010E41ABF006190
:1005500011B31B7E402F4B7E5F9100C000C002BBD9
:1005600011BB42BB7CCF4FEE5EEB6DEA7EED80E0CF
:1005700090E0CFD24EE050E064E070E082E690E0A0
:10058000B2C280E090E0AAD26F3E7E4B8D4A9E4D73
:1005900039F44EE050E064E070E082E690E08ED204
:1005A00081E090E09093630080936200089598E06A
:1005B000282F30E0915008F1A901092E02C055956D
:1005C00047950A94E2F740FF02C0C39A01C0C3985E
:1005D000EDEEF2E03197F1F700C00000C59AEBEDC7
:1005E000F5E03197F1F700C00000C598EDEEF2E0BC
:1005F0003197F1F700C00000DDCF0895C2988091D7
:100600006E0090916F0026E0969587952A95E1F708
:10061000CEDF80916E0090916F00880F880FC7DF4A
:10062000C29A8091680090916900892B31F481E031
:1006300090E09093690080936800809164009091AD
:100640006500A0916600B0916700892B8A2B8B2BE7
:1006500061F481E090E0A0E0B0E0809364009093CA
:100660006500A0936600B093670080916A00909146
:100670006B00892B31F481E090E090936B008093C4
:100680006A0080916C0090916D00892B31F481E0BB
:1006900090E090936D0080936C0020916C003091FD
:1006A0006D0080916A0090916B002817390748F01F
:1006B00080916C0090916D00019690936B008093F7
:1006C0006A0020916A0030916B00E0916800F0911F
:1006D00069004091640050916500609166007091DE
:1006E0006700E29FC001E39F900DF29F900D1124DF
:1006F000A0E0B0E0481759076A077B07D0F42091C3
:100700006A0030916B004091680050916900429FEF
:10071000C001439F900D529F900D11240196A0E0BF
:10072000B0E08093640090936500A0936600B0935E
:1007300067001092A0001092A1001092A2001092E7
:10074000A300809168009091690090939D00809330
:100750009C0080916C0090916D009195819591091C
:100760009093AB008093AA0080916C0090916D00F3
:1007700020916A0030916B00821B930B90939F0035
:1007800080939E008091640090916500A091660026
:10079000B09167004091680050916900E0916A0053
:1007A000F0916B0020916C0030916D004150510927
:1007B0004E9FB0014F9F700D5E9F700D1124260F4C
:1007C000371F821B930BA109B1098093A40090935A
:1007D000A500A093A600B093A700C09AC49A8091E8
:1007E000AA009091AB009DBD8CBD84E088BF89B705
:1007F000846089BF089589B78B7F89BFC098C498EA
:100800001092A8000895CF93DF93DC011196EC912C
:100810004E2F50E04930510548F5EC01FA01ED5EEC
:10082000FF4F09941092A800E6DF89818823F9F030
:100830008EE08093A9008FEF1AC081E001C083E0B1
:100840008093A800DBDE12C082E690E090938000E7
:1008500080937F008EE00BC086DE08C092DE06C06B
:1008600081E080939B0002C010929B0080E0DF91AA
:10087000CF9108952091A900261710F46091A90046
:10088000FC0170E04EE050E09F01281B390B261759
:10089000370774F42091A9003FEF320F3093A9007D
:1008A0003191DA01A21BB109AE59BF4F3C93ECCF95
:1008B0008091A90081110AC081E090E090936300CB
:1008C000809362008091A800811198DE9091A90028
:1008D00081E0911180E008951F920F920FB60F9260
:1008E00011242F933F934F935F936F937F938F9335
:1008F0009F93AF93BF93EF93FF93C09B4DC0C0985E
:1009000080919C0090919D00019790939D00809311
:100910009C00892BE1F58091A4009091A500A09105
:10092000A600B091A7000097A140B105B0F4809156
:10093000A4009091A500A091A600B091A700919568
:10094000819591099DBD8CBD1092A0001092A100CF
:100950001092A2001092A30011C08091A400909167
:10096000A500A091A600B091A70011978093A000C8
:100970009093A100A093A200B093A300809168007F
:100980009091690090939D0080939C005DC0809140
:100990009E0090919F0022C08091A0009091A100A4
:1009A000A091A200B091A300892B8A2B8B2BC9F4B4
:1009B00020919C0030919D00809168009091690089
:1009C0002817390731F48091A80081FF02C013DF96
:1009D0003BC0C09A8091AA009091AB009DBD8CBD98
:1009E00033C08091A0009091A100A091A200B0918D
:1009F000A3000197A140B10590F08091A0009091D3
:100A0000A100A091A200B091A30011978093A00033
:100A10009093A100A093A200B093A30015C0809171
:100A2000A0009091A100A091A200B091A300919587
:100A3000819591099DBD8CBD1092A0001092A100DE
:100A40001092A2001092A300FF91EF91BF91AF917D
:100A50009F918F917F916F915F914F913F912F91D6
:100A60000F900FBE0F901F9018958EB584608EBDAD
:100A70001092A800B89ABC9AA198A99A87B38C62E0
:100A800087BB24DC8C9A2FEB87E299E021508040D1
:100A90009040E1F700C000008C987894C3E080910A
:100AA0009B00882349F08091A800811105C0999985
:100AB00003C0C093A800A2DDFFDAF1CFDC01CB01B7
:100AC000FC01E199FECF06C0FFBBEEBBE09A319678
:100AD0000DB20D9241505040B8F70895A6E1B0E034
:100AE00044E050E0EDCFDC01CB0102C02D9105D0F8
:100AF00041505040D8F70895262FE199FECF9FBB73
:100B00008EBB2DBB0FB6F894E29AE19A0FBE019608
:100B10000895242FF2DF252FF0DF00C0EDDF272F0F
:060B2000ECCFF894FFCFBA
:100B2600FF5A0100DC01000002002E001700000041
:04000003000005FCF8
:00000001FF
