:100000003DC07FC156C055C054C053C052C051C03E
:1000100051C44FC04EC04DC04CC04BC04AC049C077
:1000200048C047C046C0F3C3FDC3F3C3FDC301C40A
:1000300008C409C409021200010100803209040049
:1000400000000000000012011001FF000008C016AF
:10005000DC050001010203010C033C003A003300FF
:1000600029007E000803450053004C000C0370007B
:10007000690074006F006E000403090411241FBEA0
:10008000CFE5D4E0DEBFCDBF10E0A0E6B0E0EAEC03
:10009000FAE002C005900D92A037B107D9F720E031
:1000A000A0E7B0E001C01D92AB3AB207E1F7C0D4BF
:1000B0000AC5A6CFCF93DF9360918100635067FD9F
:1000C000A9C080917E00CCE0D0E0C81BD109CB57FD
:1000D000DF4F80917D008D3209F08BC0683009F0D0
:1000E00097C083EC809371008AE580936100109241
:1000F00070008881807631F0CE017DD38F3F09F486
:1001000067C06DC08A8110927A009981911106C0F2
:1001100010927B002AE730E082E055C0953019F458
:100120008093820042C09630D1F59B81913019F4C2
:1001300086E490E004C0923041F484E390E0909330
:10014000800080937F0082E126C0933019F58111F1
:1001500008C088E790E09093800080937F0084E05F
:100160001AC0813019F48CE690E00EC0823041F460
:1001700084E690E09093800080937F0088E00BC03D
:10018000833041F488E590E09093800080937F0075
:100190008CE001C080E090E49093700020C0983023
:1001A00079F0993031F4809384002AE730E080E0E0
:1001B0000AC081E09A3009F080E02AE730E003C00D
:1001C00024E830E081E03093800020937F0007C076
:1001D000988197FD8E8190E89093700007C09F8171
:1001E000911104C09E81981708F4892F80936000B4
:1001F0000FC08091700087FF0BC0CE0129D38F3FC5
:1002000021F48EE18093610003C08111109260009F
:10021000109281008091610084FF46C0809160004F
:100220008F3F09F441C0C82F893008F0C8E08C1B0B
:10023000809360008091710098E889278093710015
:10024000CC2331F120917F003091800080917000AB
:1002500086FF0BC0A2E7B0E0F9018C2F8A0F9491C2
:100260009D9331968A13FBCF09C0D901E2E7F0E0F4
:100270008C2F8E0F9D9191938E13FCCF8FEF8C0F4F
:1002800090E00196820F931F9093800080937F00EF
:100290006C2F82E790E031D0CC5FCC3019F08FEF3B
:1002A00080936000C093610084E190B3947131F455
:1002B0008150D9F71092820010927C00DF91CF918B
:1002C000089585B7826085BF8BB780648BBF089522
:1002D000A82FB92F80E090E041E050EA609530E02F
:1002E00009C02D9182279795879510F0842795272F
:1002F000305EC8F36F5FA8F30895EADF8D939D9396
:100300000895CF93CFB7CF93C395849BE9F7849B90
:1003100009C0849B07C0849B05C0849B03C0849B49
:1003200001C0A1C0DF93C0917E00DD27CB57DF4F16
:10033000849B02C0DF91EBCF2F930F931F9300B3E9
:100340002FEF04FB20F94F933F9310B34FEF01279A
:1003500004FB21F93BE031C04E7F012F10B3216037
:1003600028C0102F4D7F2260000000B329C04B7FB2
:100370002460012F000010B32BC010B3477F28600A
:100380002AC04F7E00B320612CC04F7D10B3206285
:100390002FC04F7B00B3206432C0422700B3499383
:1003A0004FEF0000102714FB20F910B31471C9F1AE
:1003B000297F91F2012704FB21F900B3237F89F201
:1003C000315058F1102714FB22F910B3277E79F22F
:1003D000012704FB23F92F7C81F200B3102714FBC3
:1003E00024F92F7971F200C010B3012704FB25F91D
:1003F0002F7359F200C000B3102714FB26F92230E6
:1004000040F200C010B3012704FB27F9243028F67E
:100410004F77206810B30000F9CF10E41ABF00270F
:1004200017C03B503195C31BD04010E41ABF088160
:10043000033CE9F00B34D9F020917C001981110FB5
:100440001213EDCF093641F10D3211F0013E39F7AB
:10045000009383003F914F911F910F912F91DF9156
:10046000CAB7C6FD51CFCF91CFBFCF91189520917C
:100470008300222379F310918100112311F5343088
:1004800012F13093810020937D0010917E003BE0BB
:10049000311B30937E0017C00091810001308CF435
:1004A0000AE53091610034FD10C000936100C1E79E
:1004B000D0E00FC02795A8F45150A9F4220F0000F6
:1004C000F9CF4AE503C042ED01C0432FC4E1D0E0BB
:1004D00032E011B31461949A11BB02B320E414E129
:1004E0005F93012756E002BB279520F4515021F479
:1004F000220FF9CF012756E000003B5A02BBD0F291
:10050000279528F4515029F4220F0000F9CF012734
:1005100056E0279502BB20F4515021F4220FF9CF69
:10052000012756E02991332302BB21F60B7E10915F
:100530008200110FC651D04002BB11F010937C0015
:1005400010E41ABF006111B31B7E402F4B7E5F91F8
:1005500000C000C002BB11BB42BB7CCF4FEE5EEBC4
:100560006DEA7EED80E090E0A6D24EE050E064E0DF
:1005700070E082E690E089C280E090E081D26F3E38
:100580007E4B8D4A9E4D39F44EE050E064E070E0C1
:1005900082E690E065D281E090E0909363008093E2
:1005A0006200089548E090E0415008F19C01042E5B
:1005B00002C0359527950A94E2F720FF02C0C39A3E
:1005C00001C0C398EDEEF2E03197F1F700C00000F2
:1005D000C59AEBEDF5E03197F1F700C00000C59842
:1005E000EDEEF2E03197F1F700C00000DDCF0895A5
:1005F000C29880916E0090916F0026E09695879545
:100600002A95E1F7CFDF80916E0090916F00880FFF
:10061000880FC8DFC29A8091680090916900892B89
:1006200031F481E090E090936900809368008091BC
:10063000640090916500A0916600B0916700892BDD
:100640008A2B8B2B61F481E090E0A0E0B0E08093F6
:10065000640090936500A0936600B093670080915A
:100660006A0090916B00892B31F481E090E09093C7
:100670006B0080936A0080916C0090916D00892BD3
:1006800031F481E090E090936D0080936C002091B4
:100690006C0030916D0080916A0090916B0028177A
:1006A000390748F080916C0090916D00019690930D
:1006B0006B0080936A0020916A0030916B0060911A
:1006C0006800709169008091640090916500A0912C
:1006D0006600B0916700629FA001639F500D729FFA
:1006E000500D112460E070E084179507A607B70746
:1006F000D0F420916A0030916B00409168005091D5
:100700006900429FC001439F900D529F900D11249C
:100710000196A0E0B0E08093640090936500A09300
:100720006600B093670010929F001092A000109294
:10073000A1001092A20080916800909169009093AE
:100740009C0080939B0080916C0090916D0091952E
:10075000819591099093AA008093A90080916C00E3
:1007600090916D0020916A0030916B00821B930B79
:1007700090939E0080939D0080916400909165000D
:10078000A0916600B09167004091680050916900A7
:10079000E0916A00F0916B0060916C0070916D00C7
:1007A000415051094E9F90014F9F300D5E9F300D7B
:1007B0001124260F371F821B930BA109B1098093C7
:1007C000A3009093A400A093A500B093A600C09AA4
:1007D0008091A9009091AA009DBD8CBD84E088BF46
:1007E00089B7846089BF089589B78B7F89BFC09816
:1007F0001092A7000895CF93DF93EC01498150E058
:100800004730510508F5FA01ED5EFF4F099410924B
:10081000A700EADF89818823C1F08EE08093A800D9
:100820008FEF13C081E001C083E08093A700E0DE7A
:100830000BC082E690E09093800080937F008EE072
:1008400004C08CDE01C098DE80E0DF91CF91089576
:100850002091A800261710F46091A800FC0170E018
:100860004EE050E09F01281B390B2617370774F420
:100870002091A8003FEF320F3093A8003191DA01A8
:10088000A21BB109AE59BF4F3C93ECCF8091A80099
:1008900081110AC081E090E0909363008093620030
:1008A0008091A7008111A4DE9091A80081E09111B0
:1008B00080E008951F920F920FB60F9211242F938C
:1008C0003F934F935F936F937F938F939F93AF93D8
:1008D000BF93EF93FF93C09B53C0C09880919B0040
:1008E00090919C00019790939C0080939B00892B92
:1008F00009F041C08091A3009091A400A091A500AF
:10090000B091A6000097A140B105B0F48091A3007A
:100910009091A400A091A500B091A6009195819519
:1009200091099DBD8CBD10929F001092A000109265
:10093000A1001092A20011C08091A3009091A40088
:10094000A091A500B091A600119780939F0090936D
:10095000A000A093A100B093A200809168009091A4
:10096000690090939C0080939B008091A70081FF79
:100970004EC03ADF4CC080919D0090919E0011C006
:1009800080919F009091A000A091A100B091A20041
:10099000892B8A2B8B2B41F4C09A8091A9009091CE
:1009A000AA009DBD8CBD33C080919F009091A00096
:1009B000A091A100B091A2000197A140B10590F0D3
:1009C00080919F009091A000A091A100B091A20001
:1009D000119780939F009093A000A093A100B093E3
:1009E000A20015C080919F009091A000A091A1004D
:1009F000B091A2009195819591099DBD8CBD1092F9
:100A00009F001092A0001092A1001092A200FF91EE
:100A1000EF91BF91AF919F918F917F916F915F9176
:100A20004F913F912F910F900FBE0F901F901895EF
:100A30008EB584608EBD1092A700B89A87B38C6281
:100A400087BB3FDC8C9A2FEB87E299E021508040F6
:100A50009040E1F700C000008C9878942BDBFECF2B
:100A6000DC01CB01FC01E199FECF06C0FFBBEEBB70
:100A7000E09A31960DB20D9241505040B8F708956A
:100A8000A6E1B0E044E050E0EDCFDC01CB0102C0D4
:100A90002D9105D041505040D8F70895262FE19967
:100AA000FECF9FBB8EBB2DBB0FB6F894E29AE19AA6
:100AB0000FBE01960895242FF2DF252FF0DF00C02E
:0A0AC000EDDF272FECCFF894FFCFF5
:100ACA00FF5A0100DC01000002002E00170000009E
:04000003000005F004
:00000001FF
